{
  "_format": "hh-sol-artifact-1",
  "contractName": "Funding",
  "sourceName": "contracts/Funding.sol",
  "abi": [
    {
      "inputs": [],
      "stateMutability": "nonpayable",
      "type": "constructor"
    },
    {
      "inputs": [
        {
          "internalType": "uint256",
          "name": "",
          "type": "uint256"
        }
      ],
      "name": "arr",
      "outputs": [
        {
          "internalType": "string",
          "name": "name",
          "type": "string"
        },
        {
          "internalType": "string",
          "name": "message",
          "type": "string"
        },
        {
          "internalType": "address",
          "name": "from",
          "type": "address"
        },
        {
          "internalType": "uint256",
          "name": "timestamp",
          "type": "uint256"
        }
      ],
      "stateMutability": "view",
      "type": "function"
    },
    {
      "inputs": [],
      "name": "check",
      "outputs": [
        {
          "components": [
            {
              "internalType": "string",
              "name": "name",
              "type": "string"
            },
            {
              "internalType": "string",
              "name": "message",
              "type": "string"
            },
            {
              "internalType": "address",
              "name": "from",
              "type": "address"
            },
            {
              "internalType": "uint256",
              "name": "timestamp",
              "type": "uint256"
            }
          ],
          "internalType": "struct Funding.People[]",
          "name": "",
          "type": "tuple[]"
        }
      ],
      "stateMutability": "view",
      "type": "function"
    },
    {
      "inputs": [
        {
          "internalType": "string",
          "name": "_name",
          "type": "string"
        },
        {
          "internalType": "string",
          "name": "_message",
          "type": "string"
        }
      ],
      "name": "pay",
      "outputs": [],
      "stateMutability": "payable",
      "type": "function"
    }
  ],
  "bytecode": "0x608060405234801561001057600080fd5b50336000806101000a81548173ffffffffffffffffffffffffffffffffffffffff021916908373ffffffffffffffffffffffffffffffffffffffff160217905550610dc8806100606000396000f3fe6080604052600436106100345760003560e01c806371e5ee5f14610039578063919840ad14610079578063f46e588c146100a4575b600080fd5b34801561004557600080fd5b50610060600480360381019061005b9190610585565b6100c0565b6040516100709493929190610692565b60405180910390f35b34801561008557600080fd5b5061008e610230565b60405161009b9190610879565b60405180910390f35b6100be60048036038101906100b991906109d0565b610413565b005b600181815481106100d057600080fd5b90600052602060002090600402016000915090508060000180546100f390610a77565b80601f016020809104026020016040519081016040528092919081815260200182805461011f90610a77565b801561016c5780601f106101415761010080835404028352916020019161016c565b820191906000526020600020905b81548152906001019060200180831161014f57829003601f168201915b50505050509080600101805461018190610a77565b80601f01602080910402602001604051908101604052809291908181526020018280546101ad90610a77565b80156101fa5780601f106101cf576101008083540402835291602001916101fa565b820191906000526020600020905b8154815290600101906020018083116101dd57829003601f168201915b5050505050908060020160009054906101000a900473ffffffffffffffffffffffffffffffffffffffff16908060030154905084565b60606001805480602002602001604051908101604052809291908181526020016000905b8282101561040a578382906000526020600020906004020160405180608001604052908160008201805461028790610a77565b80601f01602080910402602001604051908101604052809291908181526020018280546102b390610a77565b80156103005780601f106102d557610100808354040283529160200191610300565b820191906000526020600020905b8154815290600101906020018083116102e357829003601f168201915b5050505050815260200160018201805461031990610a77565b80601f016020809104026020016040519081016040528092919081815260200182805461034590610a77565b80156103925780601f1061036757610100808354040283529160200191610392565b820191906000526020600020905b81548152906001019060200180831161037557829003601f168201915b505050505081526020016002820160009054906101000a900473ffffffffffffffffffffffffffffffffffffffff1673ffffffffffffffffffffffffffffffffffffffff1673ffffffffffffffffffffffffffffffffffffffff16815260200160038201548152505081526020019060010190610254565b50505050905090565b60003411610456576040517f08c379a000000000000000000000000000000000000000000000000000000000815260040161044d90610af4565b60405180910390fd5b600160405180608001604052808481526020018381526020013373ffffffffffffffffffffffffffffffffffffffff16815260200142815250908060018154018082558091505060019003906000526020600020906004020160009091909190915060008201518160000190816104cd9190610cc0565b5060208201518160010190816104e39190610cc0565b5060408201518160020160006101000a81548173ffffffffffffffffffffffffffffffffffffffff021916908373ffffffffffffffffffffffffffffffffffffffff1602179055506060820151816003015550505050565b6000604051905090565b600080fd5b600080fd5b6000819050919050565b6105628161054f565b811461056d57600080fd5b50565b60008135905061057f81610559565b92915050565b60006020828403121561059b5761059a610545565b5b60006105a984828501610570565b91505092915050565b600081519050919050565b600082825260208201905092915050565b60005b838110156105ec5780820151818401526020810190506105d1565b60008484015250505050565b6000601f19601f8301169050919050565b6000610614826105b2565b61061e81856105bd565b935061062e8185602086016105ce565b610637816105f8565b840191505092915050565b600073ffffffffffffffffffffffffffffffffffffffff82169050919050565b600061066d82610642565b9050919050565b61067d81610662565b82525050565b61068c8161054f565b82525050565b600060808201905081810360008301526106ac8187610609565b905081810360208301526106c08186610609565b90506106cf6040830185610674565b6106dc6060830184610683565b95945050505050565b600081519050919050565b600082825260208201905092915050565b6000819050602082019050919050565b600082825260208201905092915050565b600061072d826105b2565b6107378185610711565b93506107478185602086016105ce565b610750816105f8565b840191505092915050565b61076481610662565b82525050565b6107738161054f565b82525050565b600060808301600083015184820360008601526107968282610722565b915050602083015184820360208601526107b08282610722565b91505060408301516107c5604086018261075b565b5060608301516107d8606086018261076a565b508091505092915050565b60006107ef8383610779565b905092915050565b6000602082019050919050565b600061080f826106e5565b61081981856106f0565b93508360208202850161082b85610701565b8060005b85811015610867578484038952815161084885826107e3565b9450610853836107f7565b925060208a0199505060018101905061082f565b50829750879550505050505092915050565b600060208201905081810360008301526108938184610804565b905092915050565b600080fd5b600080fd5b7f4e487b7100000000000000000000000000000000000000000000000000000000600052604160045260246000fd5b6108dd826105f8565b810181811067ffffffffffffffff821117156108fc576108fb6108a5565b5b80604052505050565b600061090f61053b565b905061091b82826108d4565b919050565b600067ffffffffffffffff82111561093b5761093a6108a5565b5b610944826105f8565b9050602081019050919050565b82818337600083830152505050565b600061097361096e84610920565b610905565b90508281526020810184848401111561098f5761098e6108a0565b5b61099a848285610951565b509392505050565b600082601f8301126109b7576109b661089b565b5b81356109c7848260208601610960565b91505092915050565b600080604083850312156109e7576109e6610545565b5b600083013567ffffffffffffffff811115610a0557610a0461054a565b5b610a11858286016109a2565b925050602083013567ffffffffffffffff811115610a3257610a3161054a565b5b610a3e858286016109a2565b9150509250929050565b7f4e487b7100000000000000000000000000000000000000000000000000000000600052602260045260246000fd5b60006002820490506001821680610a8f57607f821691505b602082108103610aa257610aa1610a48565b5b50919050565b7f706c65736520706179206d6f7265207468616e20302065746865720000000000600082015250565b6000610ade601b836105bd565b9150610ae982610aa8565b602082019050919050565b60006020820190508181036000830152610b0d81610ad1565b9050919050565b60008190508160005260206000209050919050565b60006020601f8301049050919050565b600082821b905092915050565b600060088302610b767fffffffffffffffffffffffffffffffffffffffffffffffffffffffffffffffff82610b39565b610b808683610b39565b95508019841693508086168417925050509392505050565b6000819050919050565b6000610bbd610bb8610bb38461054f565b610b98565b61054f565b9050919050565b6000819050919050565b610bd783610ba2565b610beb610be382610bc4565b848454610b46565b825550505050565b600090565b610c00610bf3565b610c0b818484610bce565b505050565b5b81811015610c2f57610c24600082610bf8565b600181019050610c11565b5050565b601f821115610c7457610c4581610b14565b610c4e84610b29565b81016020851015610c5d578190505b610c71610c6985610b29565b830182610c10565b50505b505050565b600082821c905092915050565b6000610c9760001984600802610c79565b1980831691505092915050565b6000610cb08383610c86565b9150826002028217905092915050565b610cc9826105b2565b67ffffffffffffffff811115610ce257610ce16108a5565b5b610cec8254610a77565b610cf7828285610c33565b600060209050601f831160018114610d2a5760008415610d18578287015190505b610d228582610ca4565b865550610d8a565b601f198416610d3886610b14565b60005b82811015610d6057848901518255600182019150602085019450602081019050610d3b565b86831015610d7d5784890151610d79601f891682610c86565b8355505b6001600288020188555050505b50505050505056fea2646970667358221220ee21bf1ed2e98e2b89e2fc3d403fef1d534f6534af6d21b0b4a4bd843d0ffa4164736f6c63430008110033",
  "linkReferences": {},
  "deployedLinkReferences": {}
}